{
  "contractName": "Lecture",
  "abi": [
    {
      "anonymous": false,
      "inputs": [
        {
          "indexed": true,
          "internalType": "uint256",
          "name": "_speakerId",
          "type": "uint256"
        }
      ],
      "name": "scannedEvent",
      "type": "event"
    },
    {
      "constant": true,
      "inputs": [
        {
          "internalType": "address",
          "name": "",
          "type": "address"
        }
      ],
      "name": "customers",
      "outputs": [
        {
          "internalType": "bool",
          "name": "",
          "type": "bool"
        }
      ],
      "payable": false,
      "stateMutability": "view",
      "type": "function"
    },
    {
      "constant": true,
      "inputs": [
        {
          "internalType": "uint256",
          "name": "",
          "type": "uint256"
        }
      ],
      "name": "speakers",
      "outputs": [
        {
          "internalType": "uint256",
          "name": "id",
          "type": "uint256"
        },
        {
          "internalType": "address",
          "name": "owner",
          "type": "address"
        }
      ],
      "payable": false,
      "stateMutability": "view",
      "type": "function"
    },
    {
      "constant": true,
      "inputs": [],
      "name": "speakersCount",
      "outputs": [
        {
          "internalType": "uint256",
          "name": "",
          "type": "uint256"
        }
      ],
      "payable": false,
      "stateMutability": "view",
      "type": "function"
    },
    {
      "constant": false,
      "inputs": [
        {
          "internalType": "address",
          "name": "owner",
          "type": "address"
        },
        {
          "internalType": "address[]",
          "name": "customer",
          "type": "address[]"
        }
      ],
      "name": "addSpeaker",
      "outputs": [],
      "payable": false,
      "stateMutability": "nonpayable",
      "type": "function"
    },
    {
      "constant": true,
      "inputs": [
        {
          "internalType": "uint256",
          "name": "speaker",
          "type": "uint256"
        }
      ],
      "name": "getChildOfTheMapping",
      "outputs": [
        {
          "internalType": "address[]",
          "name": "",
          "type": "address[]"
        }
      ],
      "payable": false,
      "stateMutability": "view",
      "type": "function"
    },
    {
      "constant": false,
      "inputs": [
        {
          "internalType": "uint256",
          "name": "_speakerId",
          "type": "uint256"
        }
      ],
      "name": "scan",
      "outputs": [],
      "payable": false,
      "stateMutability": "nonpayable",
      "type": "function"
    }
  ],
  "bytecode": "0x608060405234801561001057600080fd5b50610730806100206000396000f3fe608060405234801561001057600080fd5b50600436106100625760003560e01c80630633fc7814610067578063336989ae146100ea5780634c8454451461014657806351ac065014610164578063e129d368146101d9578063e16d14a0146102b1575b600080fd5b6100936004803603602081101561007d57600080fd5b81019080803590602001909291905050506102df565b6040518080602001828103825283818151815260200191508051906020019060200280838360005b838110156100d65780820151818401526020810190506100bb565b505050509050019250505060405180910390f35b61012c6004803603602081101561010057600080fd5b81019080803573ffffffffffffffffffffffffffffffffffffffff169060200190929190505050610383565b604051808215151515815260200191505060405180910390f35b61014e6103a3565b6040518082815260200191505060405180910390f35b6101906004803603602081101561017a57600080fd5b81019080803590602001909291905050506103a9565b604051808381526020018273ffffffffffffffffffffffffffffffffffffffff1673ffffffffffffffffffffffffffffffffffffffff1681526020019250505060405180910390f35b6102af600480360360408110156101ef57600080fd5b81019080803573ffffffffffffffffffffffffffffffffffffffff1690602001909291908035906020019064010000000081111561022c57600080fd5b82018360208201111561023e57600080fd5b8035906020019184602083028401116401000000008311171561026057600080fd5b919080806020026020016040519081016040528093929190818152602001838360200280828437600081840152601f19601f8201169050808301925050505050505091929192905050506103ed565b005b6102dd600480360360208110156102c757600080fd5b81019080803590602001909291905050506104bc565b005b60606001600083815260200190815260200160002060020180548060200260200160405190810160405280929190818152602001828054801561037757602002820191906000526020600020905b8160009054906101000a900473ffffffffffffffffffffffffffffffffffffffff1673ffffffffffffffffffffffffffffffffffffffff168152602001906001019080831161032d575b50505050509050919050565b60006020528060005260406000206000915054906101000a900460ff1681565b60025481565b60016020528060005260406000206000915090508060000154908060010160009054906101000a900473ffffffffffffffffffffffffffffffffffffffff16905082565b600260008154809291906001019190505550604051806060016040528060025481526020018373ffffffffffffffffffffffffffffffffffffffff168152602001828152506001600060025481526020019081526020016000206000820151816000015560208201518160010160006101000a81548173ffffffffffffffffffffffffffffffffffffffff021916908373ffffffffffffffffffffffffffffffffffffffff16021790555060408201518160020190805190602001906104b492919061062e565b509050505050565b6000803373ffffffffffffffffffffffffffffffffffffffff1673ffffffffffffffffffffffffffffffffffffffff16815260200190815260200160002060009054906101000a900460ff161561051257600080fd5b60008111801561052457506002548111155b61052d57600080fd5b60016000803373ffffffffffffffffffffffffffffffffffffffff1673ffffffffffffffffffffffffffffffffffffffff16815260200190815260200160002060006101000a81548160ff021916908315150217905550600160008281526020019081526020016000206002013390806001815401808255809150509060018203906000526020600020016000909192909190916101000a81548173ffffffffffffffffffffffffffffffffffffffff021916908373ffffffffffffffffffffffffffffffffffffffff16021790555050807fd9f0f55233c81550794192d156d3df20796dbd9a49dfe6c5330ccf80d4da920060405160405180910390a250565b8280548282559060005260206000209081019282156106a7579160200282015b828111156106a65782518260006101000a81548173ffffffffffffffffffffffffffffffffffffffff021916908373ffffffffffffffffffffffffffffffffffffffff1602179055509160200191906001019061064e565b5b5090506106b491906106b8565b5090565b6106f891905b808211156106f457600081816101000a81549073ffffffffffffffffffffffffffffffffffffffff0219169055506001016106be565b5090565b9056fea265627a7a723158202718741e86d293889a2d3b9dfb180cdd076a4c29737a976d7ecfa2486f6a89ba64736f6c634300050c0032",
  "source": "pragma solidity >=0.4.21 <0.7.0;\n\ncontract Lecture {\n    // Model a speaker\n    struct Speaker {\n        uint id;\n        address owner;\n        address[] customer;\n    }\n\n    // Store accounts that have voted\n    mapping (address => bool) public customers;\n    // Store speakers\n\n    // Fetch speaker\n    mapping (uint => Speaker) public speakers;\n\n    // Store speakers count\n    uint public speakersCount;\n\n    // voted event\n    event scannedEvent (\n        uint indexed _speakerId\n    );\n\n\n    function addSpeaker(address owner, address[] memory customer) public {\n        speakersCount ++;\n        speakers[speakersCount] = Speaker(speakersCount, owner, customer);\n        //speakers[speakersCount].customer.push(customer);\n    }\n\n    function getChildOfTheMapping(uint speaker) public view returns(address[] memory) {\n        return speakers[speaker].customer;\n    }\n\n    function scan(uint _speakerId) public {\n        // require that they haven't voted before\n        require(!customers[msg.sender]);\n\n        // require a valid speaker\n        require(_speakerId > 0 && _speakerId <= speakersCount);\n        \n        // record that user has voted\n        customers[msg.sender] = true;\n\n        // update speaker vote Count\n        speakers[_speakerId].customer.push(msg.sender);\n\n        // trigger event\n        emit scannedEvent(_speakerId);\n    }\n}",
  "sourcePath": "/Users/Gomes/Workspace/Startups/AlfaOmega/SEED/xyz/chain/contracts/Lecture.sol",
  "compiler": {
    "name": "solc",
    "version": "0.5.12+commit.7709ece9.Emscripten.clang"
  },
  "schemaVersion": "3.0.19",
  "updatedAt": "2020-03-19T04:24:25.790Z",
  "networkType": "ethereum",
  "devdoc": {
    "methods": {}
  },
  "userdoc": {
    "methods": {}
  }
}