{
  "contractName": "Stand",
  "abi": [
    {
      "anonymous": false,
      "inputs": [
        {
          "indexed": true,
          "internalType": "uint256",
          "name": "_standerId",
          "type": "uint256"
        }
      ],
      "name": "scannedStand",
      "type": "event"
    },
    {
      "constant": true,
      "inputs": [
        {
          "internalType": "address",
          "name": "",
          "type": "address"
        }
      ],
      "name": "customers",
      "outputs": [
        {
          "internalType": "bool",
          "name": "",
          "type": "bool"
        }
      ],
      "payable": false,
      "stateMutability": "view",
      "type": "function"
    },
    {
      "constant": true,
      "inputs": [
        {
          "internalType": "uint256",
          "name": "",
          "type": "uint256"
        }
      ],
      "name": "standers",
      "outputs": [
        {
          "internalType": "uint256",
          "name": "id",
          "type": "uint256"
        },
        {
          "internalType": "address",
          "name": "owner",
          "type": "address"
        }
      ],
      "payable": false,
      "stateMutability": "view",
      "type": "function"
    },
    {
      "constant": true,
      "inputs": [],
      "name": "standersCount",
      "outputs": [
        {
          "internalType": "uint256",
          "name": "",
          "type": "uint256"
        }
      ],
      "payable": false,
      "stateMutability": "view",
      "type": "function"
    },
    {
      "constant": false,
      "inputs": [
        {
          "internalType": "address",
          "name": "owner",
          "type": "address"
        },
        {
          "internalType": "address[]",
          "name": "customer",
          "type": "address[]"
        }
      ],
      "name": "addStander",
      "outputs": [],
      "payable": false,
      "stateMutability": "nonpayable",
      "type": "function"
    },
    {
      "constant": true,
      "inputs": [
        {
          "internalType": "uint256",
          "name": "stander",
          "type": "uint256"
        }
      ],
      "name": "getChildOfTheMapping",
      "outputs": [
        {
          "internalType": "address[]",
          "name": "",
          "type": "address[]"
        }
      ],
      "payable": false,
      "stateMutability": "view",
      "type": "function"
    },
    {
      "constant": false,
      "inputs": [
        {
          "internalType": "uint256",
          "name": "_standerId",
          "type": "uint256"
        }
      ],
      "name": "scan",
      "outputs": [],
      "payable": false,
      "stateMutability": "nonpayable",
      "type": "function"
    }
  ],
  "bytecode": "0x608060405234801561001057600080fd5b50610730806100206000396000f3fe608060405234801561001057600080fd5b50600436106100625760003560e01c80630633fc78146100675780632b368be0146100ea578063336989ae146101085780636b779c7c14610164578063e16d14a01461023c578063f64d2eb61461026a575b600080fd5b6100936004803603602081101561007d57600080fd5b81019080803590602001909291905050506102df565b6040518080602001828103825283818151815260200191508051906020019060200280838360005b838110156100d65780820151818401526020810190506100bb565b505050509050019250505060405180910390f35b6100f2610383565b6040518082815260200191505060405180910390f35b61014a6004803603602081101561011e57600080fd5b81019080803573ffffffffffffffffffffffffffffffffffffffff169060200190929190505050610389565b604051808215151515815260200191505060405180910390f35b61023a6004803603604081101561017a57600080fd5b81019080803573ffffffffffffffffffffffffffffffffffffffff169060200190929190803590602001906401000000008111156101b757600080fd5b8201836020820111156101c957600080fd5b803590602001918460208302840111640100000000831117156101eb57600080fd5b919080806020026020016040519081016040528093929190818152602001838360200280828437600081840152601f19601f8201169050808301925050505050505091929192905050506103a9565b005b6102686004803603602081101561025257600080fd5b8101908080359060200190929190505050610478565b005b6102966004803603602081101561028057600080fd5b81019080803590602001909291905050506105ea565b604051808381526020018273ffffffffffffffffffffffffffffffffffffffff1673ffffffffffffffffffffffffffffffffffffffff1681526020019250505060405180910390f35b60606001600083815260200190815260200160002060020180548060200260200160405190810160405280929190818152602001828054801561037757602002820191906000526020600020905b8160009054906101000a900473ffffffffffffffffffffffffffffffffffffffff1673ffffffffffffffffffffffffffffffffffffffff168152602001906001019080831161032d575b50505050509050919050565b60025481565b60006020528060005260406000206000915054906101000a900460ff1681565b600260008154809291906001019190505550604051806060016040528060025481526020018373ffffffffffffffffffffffffffffffffffffffff168152602001828152506001600060025481526020019081526020016000206000820151816000015560208201518160010160006101000a81548173ffffffffffffffffffffffffffffffffffffffff021916908373ffffffffffffffffffffffffffffffffffffffff160217905550604082015181600201908051906020019061047092919061062e565b509050505050565b6000803373ffffffffffffffffffffffffffffffffffffffff1673ffffffffffffffffffffffffffffffffffffffff16815260200190815260200160002060009054906101000a900460ff16156104ce57600080fd5b6000811180156104e057506002548111155b6104e957600080fd5b60016000803373ffffffffffffffffffffffffffffffffffffffff1673ffffffffffffffffffffffffffffffffffffffff16815260200190815260200160002060006101000a81548160ff021916908315150217905550600160008281526020019081526020016000206002013390806001815401808255809150509060018203906000526020600020016000909192909190916101000a81548173ffffffffffffffffffffffffffffffffffffffff021916908373ffffffffffffffffffffffffffffffffffffffff16021790555050807f4a7afc74477e926f9ab2a3e5fb9af332df4b200921d78a33bf889ba3376e6d8660405160405180910390a250565b60016020528060005260406000206000915090508060000154908060010160009054906101000a900473ffffffffffffffffffffffffffffffffffffffff16905082565b8280548282559060005260206000209081019282156106a7579160200282015b828111156106a65782518260006101000a81548173ffffffffffffffffffffffffffffffffffffffff021916908373ffffffffffffffffffffffffffffffffffffffff1602179055509160200191906001019061064e565b5b5090506106b491906106b8565b5090565b6106f891905b808211156106f457600081816101000a81549073ffffffffffffffffffffffffffffffffffffffff0219169055506001016106be565b5090565b9056fea265627a7a72315820c0e1e1721cdf4a5b4e444f78fe3e9b76130b6ec20b499f68a83d7fc800c9e5b064736f6c634300050c0032",
  "source": "pragma solidity >=0.4.21 <0.7.0;\n\ncontract Stand {\n    // Model a stander\n    struct Stander {\n        uint id;\n        address owner;\n        address[] customer;\n    }\n\n    // Store accounts that have voted\n    mapping (address => bool) public customers;\n    // Store standers\n\n    // Fetch stander\n    mapping (uint => Stander) public standers;\n\n    // Store standers count\n    uint public standersCount;\n\n    // voted event\n    event scannedStand (\n        uint indexed _standerId\n    );\n\n\n    function addStander(address owner, address[] memory customer) public {\n        standersCount ++;\n        standers[standersCount] = Stander(standersCount, owner, customer);\n        //standers[standersCount].customer.push(customer);\n    }\n\n    function getChildOfTheMapping(uint stander) public view returns(address[] memory) {\n        return standers[stander].customer;\n    }\n\n    function scan(uint _standerId) public {\n        // require that they haven't voted before\n        require(!customers[msg.sender]);\n\n        // require a valid stander\n        require(_standerId > 0 && _standerId <= standersCount);\n        \n        // record that user has voted\n        customers[msg.sender] = true;\n\n        // update stander vote Count\n        standers[_standerId].customer.push(msg.sender);\n\n        // trigger event\n        emit scannedStand(_standerId);\n    }\n}",
  "sourcePath": "/Users/Gomes/Workspace/Startups/AlfaOmega/SEED/xyz/chain/contracts/Stand.sol",
  "compiler": {
    "name": "solc",
    "version": "0.5.12+commit.7709ece9.Emscripten.clang"
  },
  "schemaVersion": "3.0.19",
  "updatedAt": "2020-03-19T04:24:25.792Z",
  "networkType": "ethereum",
  "devdoc": {
    "methods": {}
  },
  "userdoc": {
    "methods": {}
  }
}